{
  "_format": "hh-sol-artifact-1",
  "contractName": "CHBSHToken",
  "sourceName": "contracts/CHBSHToken.sol",
  "abi": [
    {
      "inputs": [],
      "stateMutability": "nonpayable",
      "type": "constructor"
    },
    {
      "anonymous": false,
      "inputs": [
        {
          "indexed": true,
          "internalType": "address",
          "name": "owner",
          "type": "address"
        },
        {
          "indexed": true,
          "internalType": "address",
          "name": "spender",
          "type": "address"
        },
        {
          "indexed": false,
          "internalType": "uint256",
          "name": "value",
          "type": "uint256"
        }
      ],
      "name": "Approval",
      "type": "event"
    },
    {
      "anonymous": false,
      "inputs": [
        {
          "indexed": false,
          "internalType": "address",
          "name": "creator",
          "type": "address"
        },
        {
          "indexed": false,
          "internalType": "uint256",
          "name": "id",
          "type": "uint256"
        },
        {
          "indexed": false,
          "internalType": "string",
          "name": "name",
          "type": "string"
        }
      ],
      "name": "CharacterCreated",
      "type": "event"
    },
    {
      "anonymous": false,
      "inputs": [
        {
          "indexed": false,
          "internalType": "address",
          "name": "creator",
          "type": "address"
        },
        {
          "indexed": false,
          "internalType": "uint256",
          "name": "id",
          "type": "uint256"
        },
        {
          "indexed": false,
          "internalType": "string",
          "name": "name",
          "type": "string"
        }
      ],
      "name": "CharacterRemoved",
      "type": "event"
    },
    {
      "anonymous": false,
      "inputs": [
        {
          "indexed": true,
          "internalType": "address",
          "name": "previousOwner",
          "type": "address"
        },
        {
          "indexed": true,
          "internalType": "address",
          "name": "newOwner",
          "type": "address"
        }
      ],
      "name": "OwnershipTransferred",
      "type": "event"
    },
    {
      "anonymous": false,
      "inputs": [
        {
          "indexed": true,
          "internalType": "address",
          "name": "from",
          "type": "address"
        },
        {
          "indexed": true,
          "internalType": "address",
          "name": "to",
          "type": "address"
        },
        {
          "indexed": false,
          "internalType": "uint256",
          "name": "value",
          "type": "uint256"
        }
      ],
      "name": "Transfer",
      "type": "event"
    },
    {
      "inputs": [
        {
          "internalType": "address",
          "name": "owner",
          "type": "address"
        },
        {
          "internalType": "address",
          "name": "spender",
          "type": "address"
        }
      ],
      "name": "allowance",
      "outputs": [
        {
          "internalType": "uint256",
          "name": "",
          "type": "uint256"
        }
      ],
      "stateMutability": "view",
      "type": "function"
    },
    {
      "inputs": [
        {
          "internalType": "address",
          "name": "spender",
          "type": "address"
        },
        {
          "internalType": "uint256",
          "name": "amount",
          "type": "uint256"
        }
      ],
      "name": "approve",
      "outputs": [
        {
          "internalType": "bool",
          "name": "",
          "type": "bool"
        }
      ],
      "stateMutability": "nonpayable",
      "type": "function"
    },
    {
      "inputs": [
        {
          "internalType": "address",
          "name": "account",
          "type": "address"
        }
      ],
      "name": "balanceOf",
      "outputs": [
        {
          "internalType": "uint256",
          "name": "",
          "type": "uint256"
        }
      ],
      "stateMutability": "view",
      "type": "function"
    },
    {
      "inputs": [
        {
          "internalType": "address",
          "name": "account",
          "type": "address"
        },
        {
          "internalType": "uint256",
          "name": "amount",
          "type": "uint256"
        }
      ],
      "name": "burn",
      "outputs": [],
      "stateMutability": "nonpayable",
      "type": "function"
    },
    {
      "inputs": [
        {
          "internalType": "uint256",
          "name": "",
          "type": "uint256"
        }
      ],
      "name": "characters",
      "outputs": [
        {
          "internalType": "address",
          "name": "creator",
          "type": "address"
        },
        {
          "internalType": "uint256",
          "name": "id",
          "type": "uint256"
        },
        {
          "internalType": "string",
          "name": "name",
          "type": "string"
        },
        {
          "internalType": "bool",
          "name": "is_real",
          "type": "bool"
        }
      ],
      "stateMutability": "view",
      "type": "function"
    },
    {
      "inputs": [
        {
          "internalType": "string",
          "name": "name",
          "type": "string"
        },
        {
          "internalType": "bool",
          "name": "is_real",
          "type": "bool"
        }
      ],
      "name": "createCharacter",
      "outputs": [],
      "stateMutability": "nonpayable",
      "type": "function"
    },
    {
      "inputs": [],
      "name": "decimals",
      "outputs": [
        {
          "internalType": "uint8",
          "name": "",
          "type": "uint8"
        }
      ],
      "stateMutability": "view",
      "type": "function"
    },
    {
      "inputs": [
        {
          "internalType": "address",
          "name": "spender",
          "type": "address"
        },
        {
          "internalType": "uint256",
          "name": "subtractedValue",
          "type": "uint256"
        }
      ],
      "name": "decreaseAllowance",
      "outputs": [
        {
          "internalType": "bool",
          "name": "",
          "type": "bool"
        }
      ],
      "stateMutability": "nonpayable",
      "type": "function"
    },
    {
      "inputs": [
        {
          "internalType": "address",
          "name": "spender",
          "type": "address"
        },
        {
          "internalType": "uint256",
          "name": "addedValue",
          "type": "uint256"
        }
      ],
      "name": "increaseAllowance",
      "outputs": [
        {
          "internalType": "bool",
          "name": "",
          "type": "bool"
        }
      ],
      "stateMutability": "nonpayable",
      "type": "function"
    },
    {
      "inputs": [
        {
          "internalType": "address",
          "name": "account",
          "type": "address"
        },
        {
          "internalType": "uint256",
          "name": "amount",
          "type": "uint256"
        }
      ],
      "name": "mint",
      "outputs": [],
      "stateMutability": "nonpayable",
      "type": "function"
    },
    {
      "inputs": [],
      "name": "name",
      "outputs": [
        {
          "internalType": "string",
          "name": "",
          "type": "string"
        }
      ],
      "stateMutability": "view",
      "type": "function"
    },
    {
      "inputs": [],
      "name": "owner",
      "outputs": [
        {
          "internalType": "address",
          "name": "",
          "type": "address"
        }
      ],
      "stateMutability": "view",
      "type": "function"
    },
    {
      "inputs": [
        {
          "internalType": "uint256",
          "name": "id",
          "type": "uint256"
        }
      ],
      "name": "removeCharacter",
      "outputs": [],
      "stateMutability": "nonpayable",
      "type": "function"
    },
    {
      "inputs": [],
      "name": "renounceOwnership",
      "outputs": [],
      "stateMutability": "nonpayable",
      "type": "function"
    },
    {
      "inputs": [],
      "name": "symbol",
      "outputs": [
        {
          "internalType": "string",
          "name": "",
          "type": "string"
        }
      ],
      "stateMutability": "view",
      "type": "function"
    },
    {
      "inputs": [],
      "name": "totalSupply",
      "outputs": [
        {
          "internalType": "uint256",
          "name": "",
          "type": "uint256"
        }
      ],
      "stateMutability": "view",
      "type": "function"
    },
    {
      "inputs": [
        {
          "internalType": "address",
          "name": "to",
          "type": "address"
        },
        {
          "internalType": "uint256",
          "name": "amount",
          "type": "uint256"
        }
      ],
      "name": "transfer",
      "outputs": [
        {
          "internalType": "bool",
          "name": "",
          "type": "bool"
        }
      ],
      "stateMutability": "nonpayable",
      "type": "function"
    },
    {
      "inputs": [
        {
          "internalType": "address",
          "name": "from",
          "type": "address"
        },
        {
          "internalType": "address",
          "name": "to",
          "type": "address"
        },
        {
          "internalType": "uint256",
          "name": "amount",
          "type": "uint256"
        }
      ],
      "name": "transferFrom",
      "outputs": [
        {
          "internalType": "bool",
          "name": "",
          "type": "bool"
        }
      ],
      "stateMutability": "nonpayable",
      "type": "function"
    },
    {
      "inputs": [
        {
          "internalType": "address",
          "name": "newOwner",
          "type": "address"
        }
      ],
      "name": "transferOwnership",
      "outputs": [],
      "stateMutability": "nonpayable",
      "type": "function"
    }
  ],
  "bytecode": "0x60806040523480156200001157600080fd5b506040518060400160405280601181526020017f4368656275726173686b6120546f6b656e0000000000000000000000000000008152506040518060400160405280600581526020017f434842534800000000000000000000000000000000000000000000000000000081525081600390816200008f919062000687565b508060049081620000a1919062000687565b505050620000c4620000b8620000e760201b60201c565b620000ef60201b60201c565b620000d933620f4240620001b560201b60201c565b6000600681905550620008fb565b600033905090565b6000600560009054906101000a900473ffffffffffffffffffffffffffffffffffffffff16905081600560006101000a81548173ffffffffffffffffffffffffffffffffffffffff021916908373ffffffffffffffffffffffffffffffffffffffff1602179055508173ffffffffffffffffffffffffffffffffffffffff168173ffffffffffffffffffffffffffffffffffffffff167f8be0079c531659141344cd1fd0a4f28419497f9722a3daafe3b4186f6b6457e060405160405180910390a35050565b620001c5620001db60201b60201c565b620001d782826200026c60201b60201c565b5050565b620001eb620000e760201b60201c565b73ffffffffffffffffffffffffffffffffffffffff1662000211620003d960201b60201c565b73ffffffffffffffffffffffffffffffffffffffff16146200026a576040517f08c379a00000000000000000000000000000000000000000000000000000000081526004016200026190620007cf565b60405180910390fd5b565b600073ffffffffffffffffffffffffffffffffffffffff168273ffffffffffffffffffffffffffffffffffffffff1603620002de576040517f08c379a0000000000000000000000000000000000000000000000000000000008152600401620002d59062000841565b60405180910390fd5b620002f2600083836200040360201b60201c565b806002600082825462000306919062000892565b92505081905550806000808473ffffffffffffffffffffffffffffffffffffffff1673ffffffffffffffffffffffffffffffffffffffff168152602001908152602001600020600082825401925050819055508173ffffffffffffffffffffffffffffffffffffffff16600073ffffffffffffffffffffffffffffffffffffffff167fddf252ad1be2c89b69c2b068fc378daa952ba7f163c4a11628f55a4df523b3ef83604051620003b99190620008de565b60405180910390a3620003d5600083836200040860201b60201c565b5050565b6000600560009054906101000a900473ffffffffffffffffffffffffffffffffffffffff16905090565b505050565b505050565b600081519050919050565b7f4e487b7100000000000000000000000000000000000000000000000000000000600052604160045260246000fd5b7f4e487b7100000000000000000000000000000000000000000000000000000000600052602260045260246000fd5b600060028204905060018216806200048f57607f821691505b602082108103620004a557620004a462000447565b5b50919050565b60008190508160005260206000209050919050565b60006020601f8301049050919050565b600082821b905092915050565b6000600883026200050f7fffffffffffffffffffffffffffffffffffffffffffffffffffffffffffffffff82620004d0565b6200051b8683620004d0565b95508019841693508086168417925050509392505050565b6000819050919050565b6000819050919050565b600062000568620005626200055c8462000533565b6200053d565b62000533565b9050919050565b6000819050919050565b620005848362000547565b6200059c62000593826200056f565b848454620004dd565b825550505050565b600090565b620005b3620005a4565b620005c081848462000579565b505050565b5b81811015620005e857620005dc600082620005a9565b600181019050620005c6565b5050565b601f82111562000637576200060181620004ab565b6200060c84620004c0565b810160208510156200061c578190505b620006346200062b85620004c0565b830182620005c5565b50505b505050565b600082821c905092915050565b60006200065c600019846008026200063c565b1980831691505092915050565b600062000677838362000649565b9150826002028217905092915050565b62000692826200040d565b67ffffffffffffffff811115620006ae57620006ad62000418565b5b620006ba825462000476565b620006c7828285620005ec565b600060209050601f831160018114620006ff5760008415620006ea578287015190505b620006f6858262000669565b86555062000766565b601f1984166200070f86620004ab565b60005b82811015620007395784890151825560018201915060208501945060208101905062000712565b8683101562000759578489015162000755601f89168262000649565b8355505b6001600288020188555050505b505050505050565b600082825260208201905092915050565b7f4f776e61626c653a2063616c6c6572206973206e6f7420746865206f776e6572600082015250565b6000620007b76020836200076e565b9150620007c4826200077f565b602082019050919050565b60006020820190508181036000830152620007ea81620007a8565b9050919050565b7f45524332303a206d696e7420746f20746865207a65726f206164647265737300600082015250565b600062000829601f836200076e565b91506200083682620007f1565b602082019050919050565b600060208201905081810360008301526200085c816200081a565b9050919050565b7f4e487b7100000000000000000000000000000000000000000000000000000000600052601160045260246000fd5b60006200089f8262000533565b9150620008ac8362000533565b9250828201905080821115620008c757620008c662000863565b5b92915050565b620008d88162000533565b82525050565b6000602082019050620008f56000830184620008cd565b92915050565b612631806200090b6000396000f3fe608060405234801561001057600080fd5b50600436106101215760003560e01c806370a08231116100ad5780639dc29fac116100715780639dc29fac1461030d578063a457c2d714610329578063a9059cbb14610359578063dd62ed3e14610389578063f2fde38b146103b957610121565b806370a082311461027b578063715018a6146102ab578063834f6531146102b55780638da5cb5b146102d157806395d89b41146102ef57610121565b8063313ce567116100f4578063313ce567146101c257806337303b69146101e057806339509351146101fc57806340c10f191461022c5780634810bc591461024857610121565b806306fdde0314610126578063095ea7b31461014457806318160ddd1461017457806323b872dd14610192575b600080fd5b61012e6103d5565b60405161013b919061168f565b60405180910390f35b61015e60048036038101906101599190611759565b610467565b60405161016b91906117b4565b60405180910390f35b61017c61048a565b60405161018991906117de565b60405180910390f35b6101ac60048036038101906101a791906117f9565b610494565b6040516101b991906117b4565b60405180910390f35b6101ca6104c3565b6040516101d79190611868565b60405180910390f35b6101fa60048036038101906101f591906119e4565b6104cc565b005b61021660048036038101906102119190611759565b61060d565b60405161022391906117b4565b60405180910390f35b61024660048036038101906102419190611759565b610644565b005b610262600480360381019061025d9190611a40565b61065a565b6040516102729493929190611a7c565b60405180910390f35b61029560048036038101906102909190611ac8565b61073f565b6040516102a291906117de565b60405180910390f35b6102b3610787565b005b6102cf60048036038101906102ca9190611a40565b61079b565b005b6102d96109e8565b6040516102e69190611af5565b60405180910390f35b6102f7610a12565b604051610304919061168f565b60405180910390f35b61032760048036038101906103229190611759565b610aa4565b005b610343600480360381019061033e9190611759565b610aba565b60405161035091906117b4565b60405180910390f35b610373600480360381019061036e9190611759565b610b31565b60405161038091906117b4565b60405180910390f35b6103a3600480360381019061039e9190611b10565b610b54565b6040516103b091906117de565b60405180910390f35b6103d360048036038101906103ce9190611ac8565b610bdb565b005b6060600380546103e490611b7f565b80601f016020809104026020016040519081016040528092919081815260200182805461041090611b7f565b801561045d5780601f106104325761010080835404028352916020019161045d565b820191906000526020600020905b81548152906001019060200180831161044057829003601f168201915b5050505050905090565b600080610472610c5e565b905061047f818585610c66565b600191505092915050565b6000600254905090565b60008061049f610c5e565b90506104ac858285610e2f565b6104b7858585610ebb565b60019150509392505050565b60006012905090565b60405180608001604052803373ffffffffffffffffffffffffffffffffffffffff168152602001600654815260200183815260200182151581525060076000600654815260200190815260200160002060008201518160000160006101000a81548173ffffffffffffffffffffffffffffffffffffffff021916908373ffffffffffffffffffffffffffffffffffffffff1602179055506020820151816001015560408201518160020190816105829190611d5c565b5060608201518160030160006101000a81548160ff0219169083151502179055509050506001600660008282546105b99190611e5d565b925050819055507fe134621b5896180ac3d1333254ef4f71874f0d128c82993de1ae99ada28360b33360016006546105f19190611e91565b8460405161060193929190611ec5565b60405180910390a15050565b600080610618610c5e565b905061063981858561062a8589610b54565b6106349190611e5d565b610c66565b600191505092915050565b61064c611131565b61065682826111af565b5050565b60076020528060005260406000206000915090508060000160009054906101000a900473ffffffffffffffffffffffffffffffffffffffff16908060010154908060020180546106a990611b7f565b80601f01602080910402602001604051908101604052809291908181526020018280546106d590611b7f565b80156107225780601f106106f757610100808354040283529160200191610722565b820191906000526020600020905b81548152906001019060200180831161070557829003601f168201915b5050505050908060030160009054906101000a900460ff16905084565b60008060008373ffffffffffffffffffffffffffffffffffffffff1673ffffffffffffffffffffffffffffffffffffffff168152602001908152602001600020549050919050565b61078f611131565b6107996000611305565b565b6000600760008381526020019081526020016000206040518060800160405290816000820160009054906101000a900473ffffffffffffffffffffffffffffffffffffffff1673ffffffffffffffffffffffffffffffffffffffff1673ffffffffffffffffffffffffffffffffffffffff1681526020016001820154815260200160028201805461082b90611b7f565b80601f016020809104026020016040519081016040528092919081815260200182805461085790611b7f565b80156108a45780601f10610879576101008083540402835291602001916108a4565b820191906000526020600020905b81548152906001019060200180831161088757829003601f168201915b505050505081526020016003820160009054906101000a900460ff1615151515815250509050806000015173ffffffffffffffffffffffffffffffffffffffff163373ffffffffffffffffffffffffffffffffffffffff161461093c576040517f08c379a000000000000000000000000000000000000000000000000000000000815260040161093390611f75565b60405180910390fd5b7fc7e609d23f5d3ccb9b38e80f54cbb3cede2557894fe62e158a1bce22978dc1823383836040015160405161097393929190611ec5565b60405180910390a160076000838152602001908152602001600020600080820160006101000a81549073ffffffffffffffffffffffffffffffffffffffff021916905560018201600090556002820160006109ce91906115a2565b6003820160006101000a81549060ff021916905550505050565b6000600560009054906101000a900473ffffffffffffffffffffffffffffffffffffffff16905090565b606060048054610a2190611b7f565b80601f0160208091040260200160405190810160405280929190818152602001828054610a4d90611b7f565b8015610a9a5780601f10610a6f57610100808354040283529160200191610a9a565b820191906000526020600020905b815481529060010190602001808311610a7d57829003601f168201915b5050505050905090565b610aac611131565b610ab682826113cb565b5050565b600080610ac5610c5e565b90506000610ad38286610b54565b905083811015610b18576040517f08c379a0000000000000000000000000000000000000000000000000000000008152600401610b0f90612007565b60405180910390fd5b610b258286868403610c66565b60019250505092915050565b600080610b3c610c5e565b9050610b49818585610ebb565b600191505092915050565b6000600160008473ffffffffffffffffffffffffffffffffffffffff1673ffffffffffffffffffffffffffffffffffffffff16815260200190815260200160002060008373ffffffffffffffffffffffffffffffffffffffff1673ffffffffffffffffffffffffffffffffffffffff16815260200190815260200160002054905092915050565b610be3611131565b600073ffffffffffffffffffffffffffffffffffffffff168173ffffffffffffffffffffffffffffffffffffffff1603610c52576040517f08c379a0000000000000000000000000000000000000000000000000000000008152600401610c4990612099565b60405180910390fd5b610c5b81611305565b50565b600033905090565b600073ffffffffffffffffffffffffffffffffffffffff168373ffffffffffffffffffffffffffffffffffffffff1603610cd5576040517f08c379a0000000000000000000000000000000000000000000000000000000008152600401610ccc9061212b565b60405180910390fd5b600073ffffffffffffffffffffffffffffffffffffffff168273ffffffffffffffffffffffffffffffffffffffff1603610d44576040517f08c379a0000000000000000000000000000000000000000000000000000000008152600401610d3b906121bd565b60405180910390fd5b80600160008573ffffffffffffffffffffffffffffffffffffffff1673ffffffffffffffffffffffffffffffffffffffff16815260200190815260200160002060008473ffffffffffffffffffffffffffffffffffffffff1673ffffffffffffffffffffffffffffffffffffffff168152602001908152602001600020819055508173ffffffffffffffffffffffffffffffffffffffff168373ffffffffffffffffffffffffffffffffffffffff167f8c5be1e5ebec7d5bd14f71427d1e84f3dd0314c0f7b2291e5b200ac8c7c3b92583604051610e2291906117de565b60405180910390a3505050565b6000610e3b8484610b54565b90507fffffffffffffffffffffffffffffffffffffffffffffffffffffffffffffffff8114610eb55781811015610ea7576040517f08c379a0000000000000000000000000000000000000000000000000000000008152600401610e9e90612229565b60405180910390fd5b610eb48484848403610c66565b5b50505050565b600073ffffffffffffffffffffffffffffffffffffffff168373ffffffffffffffffffffffffffffffffffffffff1603610f2a576040517f08c379a0000000000000000000000000000000000000000000000000000000008152600401610f21906122bb565b60405180910390fd5b600073ffffffffffffffffffffffffffffffffffffffff168273ffffffffffffffffffffffffffffffffffffffff1603610f99576040517f08c379a0000000000000000000000000000000000000000000000000000000008152600401610f909061234d565b60405180910390fd5b610fa4838383611598565b60008060008573ffffffffffffffffffffffffffffffffffffffff1673ffffffffffffffffffffffffffffffffffffffff1681526020019081526020016000205490508181101561102a576040517f08c379a0000000000000000000000000000000000000000000000000000000008152600401611021906123df565b60405180910390fd5b8181036000808673ffffffffffffffffffffffffffffffffffffffff1673ffffffffffffffffffffffffffffffffffffffff16815260200190815260200160002081905550816000808573ffffffffffffffffffffffffffffffffffffffff1673ffffffffffffffffffffffffffffffffffffffff168152602001908152602001600020600082825401925050819055508273ffffffffffffffffffffffffffffffffffffffff168473ffffffffffffffffffffffffffffffffffffffff167fddf252ad1be2c89b69c2b068fc378daa952ba7f163c4a11628f55a4df523b3ef8460405161111891906117de565b60405180910390a361112b84848461159d565b50505050565b611139610c5e565b73ffffffffffffffffffffffffffffffffffffffff166111576109e8565b73ffffffffffffffffffffffffffffffffffffffff16146111ad576040517f08c379a00000000000000000000000000000000000000000000000000000000081526004016111a49061244b565b60405180910390fd5b565b600073ffffffffffffffffffffffffffffffffffffffff168273ffffffffffffffffffffffffffffffffffffffff160361121e576040517f08c379a0000000000000000000000000000000000000000000000000000000008152600401611215906124b7565b60405180910390fd5b61122a60008383611598565b806002600082825461123c9190611e5d565b92505081905550806000808473ffffffffffffffffffffffffffffffffffffffff1673ffffffffffffffffffffffffffffffffffffffff168152602001908152602001600020600082825401925050819055508173ffffffffffffffffffffffffffffffffffffffff16600073ffffffffffffffffffffffffffffffffffffffff167fddf252ad1be2c89b69c2b068fc378daa952ba7f163c4a11628f55a4df523b3ef836040516112ed91906117de565b60405180910390a36113016000838361159d565b5050565b6000600560009054906101000a900473ffffffffffffffffffffffffffffffffffffffff16905081600560006101000a81548173ffffffffffffffffffffffffffffffffffffffff021916908373ffffffffffffffffffffffffffffffffffffffff1602179055508173ffffffffffffffffffffffffffffffffffffffff168173ffffffffffffffffffffffffffffffffffffffff167f8be0079c531659141344cd1fd0a4f28419497f9722a3daafe3b4186f6b6457e060405160405180910390a35050565b600073ffffffffffffffffffffffffffffffffffffffff168273ffffffffffffffffffffffffffffffffffffffff160361143a576040517f08c379a000000000000000000000000000000000000000000000000000000000815260040161143190612549565b60405180910390fd5b61144682600083611598565b60008060008473ffffffffffffffffffffffffffffffffffffffff1673ffffffffffffffffffffffffffffffffffffffff168152602001908152602001600020549050818110156114cc576040517f08c379a00000000000000000000000000000000000000000000000000000000081526004016114c3906125db565b60405180910390fd5b8181036000808573ffffffffffffffffffffffffffffffffffffffff1673ffffffffffffffffffffffffffffffffffffffff1681526020019081526020016000208190555081600260008282540392505081905550600073ffffffffffffffffffffffffffffffffffffffff168373ffffffffffffffffffffffffffffffffffffffff167fddf252ad1be2c89b69c2b068fc378daa952ba7f163c4a11628f55a4df523b3ef8460405161157f91906117de565b60405180910390a36115938360008461159d565b505050565b505050565b505050565b5080546115ae90611b7f565b6000825580601f106115c057506115df565b601f0160209004906000526020600020908101906115de91906115e2565b5b50565b5b808211156115fb5760008160009055506001016115e3565b5090565b600081519050919050565b600082825260208201905092915050565b60005b8381101561163957808201518184015260208101905061161e565b60008484015250505050565b6000601f19601f8301169050919050565b6000611661826115ff565b61166b818561160a565b935061167b81856020860161161b565b61168481611645565b840191505092915050565b600060208201905081810360008301526116a98184611656565b905092915050565b6000604051905090565b600080fd5b600080fd5b600073ffffffffffffffffffffffffffffffffffffffff82169050919050565b60006116f0826116c5565b9050919050565b611700816116e5565b811461170b57600080fd5b50565b60008135905061171d816116f7565b92915050565b6000819050919050565b61173681611723565b811461174157600080fd5b50565b6000813590506117538161172d565b92915050565b600080604083850312156117705761176f6116bb565b5b600061177e8582860161170e565b925050602061178f85828601611744565b9150509250929050565b60008115159050919050565b6117ae81611799565b82525050565b60006020820190506117c960008301846117a5565b92915050565b6117d881611723565b82525050565b60006020820190506117f360008301846117cf565b92915050565b600080600060608486031215611812576118116116bb565b5b60006118208682870161170e565b93505060206118318682870161170e565b925050604061184286828701611744565b9150509250925092565b600060ff82169050919050565b6118628161184c565b82525050565b600060208201905061187d6000830184611859565b92915050565b600080fd5b600080fd5b7f4e487b7100000000000000000000000000000000000000000000000000000000600052604160045260246000fd5b6118c582611645565b810181811067ffffffffffffffff821117156118e4576118e361188d565b5b80604052505050565b60006118f76116b1565b905061190382826118bc565b919050565b600067ffffffffffffffff8211156119235761192261188d565b5b61192c82611645565b9050602081019050919050565b82818337600083830152505050565b600061195b61195684611908565b6118ed565b90508281526020810184848401111561197757611976611888565b5b611982848285611939565b509392505050565b600082601f83011261199f5761199e611883565b5b81356119af848260208601611948565b91505092915050565b6119c181611799565b81146119cc57600080fd5b50565b6000813590506119de816119b8565b92915050565b600080604083850312156119fb576119fa6116bb565b5b600083013567ffffffffffffffff811115611a1957611a186116c0565b5b611a258582860161198a565b9250506020611a36858286016119cf565b9150509250929050565b600060208284031215611a5657611a556116bb565b5b6000611a6484828501611744565b91505092915050565b611a76816116e5565b82525050565b6000608082019050611a916000830187611a6d565b611a9e60208301866117cf565b8181036040830152611ab08185611656565b9050611abf60608301846117a5565b95945050505050565b600060208284031215611ade57611add6116bb565b5b6000611aec8482850161170e565b91505092915050565b6000602082019050611b0a6000830184611a6d565b92915050565b60008060408385031215611b2757611b266116bb565b5b6000611b358582860161170e565b9250506020611b468582860161170e565b9150509250929050565b7f4e487b7100000000000000000000000000000000000000000000000000000000600052602260045260246000fd5b60006002820490506001821680611b9757607f821691505b602082108103611baa57611ba9611b50565b5b50919050565b60008190508160005260206000209050919050565b60006020601f8301049050919050565b600082821b905092915050565b600060088302611c127fffffffffffffffffffffffffffffffffffffffffffffffffffffffffffffffff82611bd5565b611c1c8683611bd5565b95508019841693508086168417925050509392505050565b6000819050919050565b6000611c59611c54611c4f84611723565b611c34565b611723565b9050919050565b6000819050919050565b611c7383611c3e565b611c87611c7f82611c60565b848454611be2565b825550505050565b600090565b611c9c611c8f565b611ca7818484611c6a565b505050565b5b81811015611ccb57611cc0600082611c94565b600181019050611cad565b5050565b601f821115611d1057611ce181611bb0565b611cea84611bc5565b81016020851015611cf9578190505b611d0d611d0585611bc5565b830182611cac565b50505b505050565b600082821c905092915050565b6000611d3360001984600802611d15565b1980831691505092915050565b6000611d4c8383611d22565b9150826002028217905092915050565b611d65826115ff565b67ffffffffffffffff811115611d7e57611d7d61188d565b5b611d888254611b7f565b611d93828285611ccf565b600060209050601f831160018114611dc65760008415611db4578287015190505b611dbe8582611d40565b865550611e26565b601f198416611dd486611bb0565b60005b82811015611dfc57848901518255600182019150602085019450602081019050611dd7565b86831015611e195784890151611e15601f891682611d22565b8355505b6001600288020188555050505b505050505050565b7f4e487b7100000000000000000000000000000000000000000000000000000000600052601160045260246000fd5b6000611e6882611723565b9150611e7383611723565b9250828201905080821115611e8b57611e8a611e2e565b5b92915050565b6000611e9c82611723565b9150611ea783611723565b9250828203905081811115611ebf57611ebe611e2e565b5b92915050565b6000606082019050611eda6000830186611a6d565b611ee760208301856117cf565b8181036040830152611ef98184611656565b9050949350505050565b7f596f752063616e206f6e6c792072656d6f766520796f7572206368617261637460008201527f6572730000000000000000000000000000000000000000000000000000000000602082015250565b6000611f5f60238361160a565b9150611f6a82611f03565b604082019050919050565b60006020820190508181036000830152611f8e81611f52565b9050919050565b7f45524332303a2064656372656173656420616c6c6f77616e63652062656c6f7760008201527f207a65726f000000000000000000000000000000000000000000000000000000602082015250565b6000611ff160258361160a565b9150611ffc82611f95565b604082019050919050565b6000602082019050818103600083015261202081611fe4565b9050919050565b7f4f776e61626c653a206e6577206f776e657220697320746865207a65726f206160008201527f6464726573730000000000000000000000000000000000000000000000000000602082015250565b600061208360268361160a565b915061208e82612027565b604082019050919050565b600060208201905081810360008301526120b281612076565b9050919050565b7f45524332303a20617070726f76652066726f6d20746865207a65726f2061646460008201527f7265737300000000000000000000000000000000000000000000000000000000602082015250565b600061211560248361160a565b9150612120826120b9565b604082019050919050565b6000602082019050818103600083015261214481612108565b9050919050565b7f45524332303a20617070726f766520746f20746865207a65726f20616464726560008201527f7373000000000000000000000000000000000000000000000000000000000000602082015250565b60006121a760228361160a565b91506121b28261214b565b604082019050919050565b600060208201905081810360008301526121d68161219a565b9050919050565b7f45524332303a20696e73756666696369656e7420616c6c6f77616e6365000000600082015250565b6000612213601d8361160a565b915061221e826121dd565b602082019050919050565b6000602082019050818103600083015261224281612206565b9050919050565b7f45524332303a207472616e736665722066726f6d20746865207a65726f20616460008201527f6472657373000000000000000000000000000000000000000000000000000000602082015250565b60006122a560258361160a565b91506122b082612249565b604082019050919050565b600060208201905081810360008301526122d481612298565b9050919050565b7f45524332303a207472616e7366657220746f20746865207a65726f206164647260008201527f6573730000000000000000000000000000000000000000000000000000000000602082015250565b600061233760238361160a565b9150612342826122db565b604082019050919050565b600060208201905081810360008301526123668161232a565b9050919050565b7f45524332303a207472616e7366657220616d6f756e742065786365656473206260008201527f616c616e63650000000000000000000000000000000000000000000000000000602082015250565b60006123c960268361160a565b91506123d48261236d565b604082019050919050565b600060208201905081810360008301526123f8816123bc565b9050919050565b7f4f776e61626c653a2063616c6c6572206973206e6f7420746865206f776e6572600082015250565b600061243560208361160a565b9150612440826123ff565b602082019050919050565b6000602082019050818103600083015261246481612428565b9050919050565b7f45524332303a206d696e7420746f20746865207a65726f206164647265737300600082015250565b60006124a1601f8361160a565b91506124ac8261246b565b602082019050919050565b600060208201905081810360008301526124d081612494565b9050919050565b7f45524332303a206275726e2066726f6d20746865207a65726f2061646472657360008201527f7300000000000000000000000000000000000000000000000000000000000000602082015250565b600061253360218361160a565b915061253e826124d7565b604082019050919050565b6000602082019050818103600083015261256281612526565b9050919050565b7f45524332303a206275726e20616d6f756e7420657863656564732062616c616e60008201527f6365000000000000000000000000000000000000000000000000000000000000602082015250565b60006125c560228361160a565b91506125d082612569565b604082019050919050565b600060208201905081810360008301526125f4816125b8565b905091905056fea26469706673582212203236b2588219e101a36f2e87f866bbaf185fc7fa97bc94d5e277e3d707268eab64736f6c63430008110033",
  "linkReferences": {},
  "deployedLinkReferences": {}
}